{
  "contractName": "Voting",
  "abi": [
    {
      "anonymous": false,
      "inputs": [
        {
          "indexed": false,
          "internalType": "string",
          "name": "voterId",
          "type": "string"
        },
        {
          "indexed": false,
          "internalType": "string",
          "name": "candidateId",
          "type": "string"
        },
        {
          "indexed": false,
          "internalType": "string",
          "name": "partyName",
          "type": "string"
        },
        {
          "indexed": false,
          "internalType": "string",
          "name": "date",
          "type": "string"
        }
      ],
      "name": "VoteCast",
      "type": "event"
    },
    {
      "inputs": [
        {
          "internalType": "string",
          "name": "",
          "type": "string"
        }
      ],
      "name": "hasVoted",
      "outputs": [
        {
          "internalType": "bool",
          "name": "",
          "type": "bool"
        }
      ],
      "stateMutability": "view",
      "type": "function",
      "constant": true
    },
    {
      "inputs": [],
      "name": "totalVoters",
      "outputs": [
        {
          "internalType": "uint256",
          "name": "",
          "type": "uint256"
        }
      ],
      "stateMutability": "view",
      "type": "function",
      "constant": true
    },
    {
      "inputs": [
        {
          "internalType": "string",
          "name": "",
          "type": "string"
        }
      ],
      "name": "votesPerCandidate",
      "outputs": [
        {
          "internalType": "uint256",
          "name": "",
          "type": "uint256"
        }
      ],
      "stateMutability": "view",
      "type": "function",
      "constant": true
    },
    {
      "inputs": [
        {
          "internalType": "string",
          "name": "_voterId",
          "type": "string"
        },
        {
          "internalType": "string",
          "name": "_candidateId",
          "type": "string"
        },
        {
          "internalType": "string",
          "name": "_partyName",
          "type": "string"
        },
        {
          "internalType": "string",
          "name": "_date",
          "type": "string"
        }
      ],
      "name": "castVote",
      "outputs": [
        {
          "internalType": "bool",
          "name": "",
          "type": "bool"
        }
      ],
      "stateMutability": "nonpayable",
      "type": "function"
    },
    {
      "inputs": [
        {
          "internalType": "string",
          "name": "_candidateId",
          "type": "string"
        }
      ],
      "name": "getVotesForCandidate",
      "outputs": [
        {
          "internalType": "uint256",
          "name": "",
          "type": "uint256"
        }
      ],
      "stateMutability": "view",
      "type": "function",
      "constant": true
    },
    {
      "inputs": [
        {
          "internalType": "string",
          "name": "_voterId",
          "type": "string"
        }
      ],
      "name": "voterStatus",
      "outputs": [
        {
          "internalType": "bool",
          "name": "",
          "type": "bool"
        }
      ],
      "stateMutability": "view",
      "type": "function",
      "constant": true
    },
    {
      "inputs": [],
      "name": "getTotalVoters",
      "outputs": [
        {
          "internalType": "uint256",
          "name": "",
          "type": "uint256"
        }
      ],
      "stateMutability": "view",
      "type": "function",
      "constant": true
    }
  ],
  "bytecode": "0x608060405234801561001057600080fd5b506108f0806100206000396000f3fe608060405234801561001057600080fd5b506004361061007d5760003560e01c80635f5300ff1161005b5780635f5300ff146101125780636ff1562714610130578063793cf21814610160578063881053c41461017e5761007d565b8063234ee1111461008257806339bfeae3146100b25780633b77d507146100e2575b600080fd5b61009c60048036038101906100979190610511565b6101ae565b6040516100a99190610603565b60405180910390f35b6100cc60048036038101906100c7919061061e565b6102e7565b6040516100d99190610603565b60405180910390f35b6100fc60048036038101906100f7919061061e565b61031d565b6040516101099190610680565b60405180910390f35b61011a61034b565b6040516101279190610680565b60405180910390f35b61014a6004803603810190610145919061061e565b610351565b6040516101579190610680565b60405180910390f35b610168610378565b6040516101759190610680565b60405180910390f35b6101986004803603810190610193919061061e565b610382565b6040516101a59190610603565b60405180910390f35b60006001856040516101c09190610715565b908152602001604051809103902060009054906101000a900460ff161561021c576040517f08c379a000000000000000000000000000000000000000000000000000000000815260040161021390610789565b60405180910390fd5b6001808660405161022d9190610715565b908152602001604051809103902060006101000a81548160ff02191690831515021790555060026000815480929190610265906107d8565b919050555060008460405161027a9190610715565b90815260200160405180910390206000815480929190610299906107d8565b91905055507f22beb8a4f4be3ddd60cb06fad611e5943daf5fb6db2dad9ba420cfd5d874fa46858585856040516102d39493929190610859565b60405180910390a160019050949350505050565b6001818051602081018201805184825260208301602085012081835280955050505050506000915054906101000a900460ff1681565b6000818051602081018201805184825260208301602085012081835280955050505050506000915090505481565b60025481565b600080826040516103629190610715565b9081526020016040518091039020549050919050565b6000600254905090565b60006001826040516103949190610715565b908152602001604051809103902060009054906101000a900460ff169050919050565b6000604051905090565b600080fd5b600080fd5b600080fd5b600080fd5b6000601f19601f8301169050919050565b7f4e487b7100000000000000000000000000000000000000000000000000000000600052604160045260246000fd5b61041e826103d5565b810181811067ffffffffffffffff8211171561043d5761043c6103e6565b5b80604052505050565b60006104506103b7565b905061045c8282610415565b919050565b600067ffffffffffffffff82111561047c5761047b6103e6565b5b610485826103d5565b9050602081019050919050565b82818337600083830152505050565b60006104b46104af84610461565b610446565b9050828152602081018484840111156104d0576104cf6103d0565b5b6104db848285610492565b509392505050565b600082601f8301126104f8576104f76103cb565b5b81356105088482602086016104a1565b91505092915050565b6000806000806080858703121561052b5761052a6103c1565b5b600085013567ffffffffffffffff811115610549576105486103c6565b5b610555878288016104e3565b945050602085013567ffffffffffffffff811115610576576105756103c6565b5b610582878288016104e3565b935050604085013567ffffffffffffffff8111156105a3576105a26103c6565b5b6105af878288016104e3565b925050606085013567ffffffffffffffff8111156105d0576105cf6103c6565b5b6105dc878288016104e3565b91505092959194509250565b60008115159050919050565b6105fd816105e8565b82525050565b600060208201905061061860008301846105f4565b92915050565b600060208284031215610634576106336103c1565b5b600082013567ffffffffffffffff811115610652576106516103c6565b5b61065e848285016104e3565b91505092915050565b6000819050919050565b61067a81610667565b82525050565b60006020820190506106956000830184610671565b92915050565b600081519050919050565b600081905092915050565b60005b838110156106cf5780820151818401526020810190506106b4565b838111156106de576000848401525b50505050565b60006106ef8261069b565b6106f981856106a6565b93506107098185602086016106b1565b80840191505092915050565b600061072182846106e4565b915081905092915050565b600082825260208201905092915050565b7f566f7465722068617320616c726561647920766f746564210000000000000000600082015250565b600061077360188361072c565b915061077e8261073d565b602082019050919050565b600060208201905081810360008301526107a281610766565b9050919050565b7f4e487b7100000000000000000000000000000000000000000000000000000000600052601160045260246000fd5b60006107e382610667565b91507fffffffffffffffffffffffffffffffffffffffffffffffffffffffffffffffff8203610815576108146107a9565b5b600182019050919050565b600061082b8261069b565b610835818561072c565b93506108458185602086016106b1565b61084e816103d5565b840191505092915050565b600060808201905081810360008301526108738187610820565b905081810360208301526108878186610820565b9050818103604083015261089b8185610820565b905081810360608301526108af8184610820565b90509594505050505056fea26469706673582212207668d61f71918abf3a0ca36f491eebeb20edd6f04b06bc3a938375e0bd4f9eb264736f6c634300080d0033",
  "immutableReferences": {},
  "source": "// SPDX-License-Identifier: MIT\r\n// pragma solidity ^0.8.20;\r\npragma solidity >=0.4.22 <0.9.0;\r\n\r\ncontract Voting {\r\n    struct Vote {\r\n        string voterId;\r\n        string candidateId;\r\n        string partyName;\r\n        string date;\r\n    }\r\n\r\n    // Mapping to track votes per candidate\r\n    mapping(string => uint256) public votesPerCandidate;\r\n    \r\n    // Mapping to track unique voters\r\n    mapping(string => bool) public hasVoted;\r\n    \r\n    // Total voters count\r\n    uint256 public totalVoters;\r\n\r\n    // Event to emit when a vote is cast\r\n    event VoteCast(string voterId, string candidateId, string partyName, string date);\r\n\r\n    function castVote(string memory _voterId, string memory _candidateId, string memory _partyName, string memory _date) public returns (bool){\r\n        //  bytes32 voterHash = keccak256(abi.encodePacked(_voterId));\r\n    // bytes32 candidateHash = keccak256(abi.encodePacked(_candidateId));\r\n        require(!hasVoted[_voterId], \"Voter has already voted!\");\r\n\r\n        // Mark voter as voted\r\n        hasVoted[_voterId] = true;\r\n        totalVoters++;\r\n\r\n        // Increment vote count for the candidate\r\n        votesPerCandidate[_candidateId]++;\r\n\r\n        // Emit event for vote tracking\r\n        emit VoteCast(_voterId, _candidateId, _partyName, _date);\r\n        return true;\r\n    }\r\n\r\n    // Get number of votes for a candidate\r\n    function getVotesForCandidate(string memory _candidateId) public view returns (uint256) {\r\n        //  bytes32 candidateHash = keccak256(abi.encodePacked(_candidateId)); // Convert input string to bytes32\r\n        return votesPerCandidate[_candidateId];\r\n    }\r\n    function voterStatus(string memory _voterId) public view returns (bool) {\r\n        //  bytes32 voterHash = keccak256(abi.encodePacked(_voterId)); // Convert input string to bytes32\r\n        return hasVoted[_voterId];\r\n    }\r\n    // Get total number of voters participated\r\n    function getTotalVoters() public view returns (uint256) {\r\n        return totalVoters;\r\n    }\r\n}\r\n",
  "sourcePath": "C:\\Users\\User\\Downloads\\Decentralized-Voting-System\\blockchain\\contracts\\Voting.sol",
  "compiler": {
    "name": "solc",
    "version": "0.8.13+commit.abaa5c0e.Emscripten.clang"
  },
  "schemaVersion": "3.4.16",
  "updatedAt": "2025-04-14T14:23:26.631Z",
  "networkType": "ethereum",
  "devdoc": {
    "kind": "dev",
    "methods": {},
    "version": 1
  },
  "userdoc": {
    "kind": "user",
    "methods": {},
    "version": 1
  }
}